:03000000020B955B
:0C0B950078FFE4F6D8FD758124020BDC2B
:053FFB00FFD75AA55F8D
:100E5800010C00010F00010900011000010E000142
:100E68000D00010800C100C102C101C103020A004E
:010E78000079
:100F2400E50D7004E5086013E50FB50D0EE509B590
:0C0F34000809D201E4F50AF50BC2032203
:100DB30030013B050BE50B7002050AD39410E50ADD
:100DC3009427501EAE0AAF0B7C017DF412082BED65
:100DD3004C701B300306120FF3C20322120F40D2D2
:0F0DE3000322C201120FF3C203E4F50AF50B223B
:100ABE00758E7075E50575E669E4F58E120FAE124A
:100ACE000FCA120F69120FE0751400751500751616
:100ADE00087B007A00790D120D24E509650E60067B
:100AEE0085090E120F24120DB330020F120F407F24
:100AFE002C7E01120F01120FF3C202E50C146016C8
:100B0E0014602414603214604A24047063AD09AF7B
:100B1E000F120E83805A300009AD09AF0F120EADC1
:100B2E00804E120FE78049300009AD09AF0F120E4B
:100B3E00D7803D120FED8038300009AD08AF0D1291
:100B4E000EAD8003120FE7300004E4FD801E7D0120
:100B5E00E48019300009AD08AF0D120ED7800312D4
:100B6E000FED300004E4FD80037D01E4FF120FD78A
:100B7E0075865A7F017E00120F01120DF2AD0EAF77
:070B8E0010120E83020AE8B9
:100F0100E4FDFC75865AE4FBFAC3EB9FEA9E5007A9
:100F11000BBB00010A80F20DBD00010CED64644CB5
:020F210070E17D
:010F230022AB
:0E0FAE0053E80F43FDF0758F02D2A8D2AF2298
:030003000209628D
:10096200C0E0C0F0C083C082C0D075D000C000C05B
:0D09720001C002C003C004C005C006C007DC
:10097F00758F00C2EC43E8EFD2027517000517E53B
:10098F0017B464F920A421E50C700B850F108509AD
:10099F000E750C018012E50CB40105750C02800870
:1009AF00E50CB40203750C007517000517E517B4B5
:1009BF0064F920A729E50C7005750C038020E50C60
:1009CF00B40305750C048016E50CB40411AD08AF23
:1009DF000D120F7C750C007D01E4FF120FD7D2ECC6
:1009EF00C2EF7517000517E517B464F920A44AE59F
:1009FF000CB4010E050FE50FD39417403C750F0093
:100A0F008037E50CB4020E0509E509D3943B402964
:100A1F007509008024E50CB4030E050DE50DD39484
:100A2F00174016750D008011E50CB4040C0508E590
:100A3F0008D3943B40037508007517000517E51799
:100A4F00B464F920A546E50CB4010DE50F700575EA
:100A5F000F178038150F8034E50CB4020DE50970BF
:100A6F000575093B802615098022E50CB4030DE5B9
:100A7F000D7005750D178014150D8010E50CB4045D
:100A8F000BE508700575083B80021508D2EF53E897
:040A9F000F758F023E
:100AA300D007D006D005D004D003D002D001D000A7
:0B0AB300D0D0D082D083D0F0D0E03251
:100F8E003F065B4F666D7D077F6F777C395E7971AB
:030E79000118005D
:0D0FCA00E4F5B075FCFF53FEF043FE0F226E
:100DF200C2F8C2F9C2FAC2FBE51814600E14600F01
:100E02001460102403700ED2F8800AD2F98006D240
:100E1200FA8002D2FB74192518F8E6F5B00518E538
:090E220018D394034003E4F51811
:010E2B0022A4
:100E8300EF75F00A84900F8E93F519EF75F00A84CD
:100E9300E5F0934480F51AED75F00A8493F51BEDA4
:0A0EA30075F00A84E5F093F51C22B7
:100EAD00EF75F00A84900F8E93F519EF75F00A84A3
:100EBD00E5F0934480F51AED75F00A8493F51BED7A
:0A0ECD0075F00A84E5F093F51C228D
:060FE700E4F519F51A22E1
:100ED700EF75F00A84900F8E93F519EF75F00A8479
:100EE700E5F0934480F51AED75F00A8493F51BED50
:0A0EF70075F00A84E5F093F51C2263
:060FED00E4F51BF51C22D7
:060E7C0002230000C10486
:100F690075890575E720758CFC758A18D28CD2A90C
:030F7900D2AF22D2
:03000B00020C21C3
:100C2100C0E0C0D0758C3C758AB00521E521D39414
:100C31000A4005752100B200E50C70240522E52269
:100C4100D39414401B7522000509E509D3943B4058
:100C51000F750900050FE50FD394174003750F00B9
:100C6100E50C64016011E50C6402600BE50C6403A2
:100C71006005E50CB40404D2048008C204752300A5
:100C810075240030041E0524E52470020523C39455
:100C910058E5239402400DC20475230075240075A4
:090CA1000C00D202D0D0D0E032E8
:100F5500F97AFA21FAC8FB6FFC16FCBDFD50FE0BB1
:040F6500FEB2FF5980
:100F40007F09120CAA75C84175C102E51DF5CD8552
:050F50001ECCD2AD2211
:03002B00020FBC05
:0E0FBC00C0E0E51DF5CD851ECCC2C6D0E032EA
:100CAA00EF25E02455F582E4340FF583E493F51D2E
:100CBA00740193F51EAE1DFBAA06E4C39BFFE49ADA
:100CCA00FE74019400FDE49400FCE47B02FAF9F856
:100CDA00120D6FA804A905AA06AB07E4FCFDEB25D3
:100CEA001EFFEA351DFEED39FDEC38FC78081208C6
:100CFA00808FCBAE1DAF1EAB07AA06E4C39BFFE4F1
:100D0A009AFE74019400FDE49400FCE47B02FAF973
:0A0D1A00F8120D6FE51E2FF5CA2236
:060FF300E4F5C8F5C1227F
:070FE00043801843F91822B9
:090FD700EF7005ED24FF92832266
:100E2C00AA06EFFCF5C8AF028FC775C6FF75C522C1
:100E3C00C2AF75C9010000D2AF8CC88FC78DC67503
:0C0E4C00C521C2AF75C9010000D2AF2261
:0F0F9E00EFF5C88EC7E4F5C575C9010000AFC6F1
:010FAD002221
:100F7C00A905AD077FF07E00120E2CAD017FF102AA
:020F8C000E2C29
:100D24008B118A1289137FF07E00120F9EAB11AAD9
:100D340012A913EF1208197FF1120F9EAB14AA1512
:100D4400A916EF120819AB11AA12A913120800D39D
:100D540094174004E4120819AB14AA15A916120832
:0B0D640000D3943B4004E41208192265
:100BA100020ABEE493A3F8E493A34003F68001F2A2
:100BB10008DFF48029E493A3F85407240CC8C33355
:100BC100C4540F4420C8834004F456800146F6DF24
:100BD100E4800B0102040810204080900E58E47E4E
:100BE100019360BCA3FF543F30E509541FFEE49319
:100BF100A360010ECF54C025E060A840B8E493A3E0
:100C0100FAE493A3F8E493A3C8C582C8CAC583CA0A
:100C1100F0A3C8C582C8CAC583CADFE9DEE780BEC2
:010E8200006F
:10080000BB010689828A83E0225002E722BBFE02F6
:09081000E32289828A83E4932229
:10081900BB010689828A83F0225002F722BBFE01BE
:02082900F322B8
:10082B00BC000BBE0029EF8DF084FFADF022E4CCB1
:10083B00F875F008EF2FFFEE33FEEC33FCEE9DEC7A
:10084B00984005FCEE9DFE0FD5F0E9E4CEFD22EDC0
:10085B00F8F5F0EE8420D21CFEADF075F008EF2F0A
:10086B00FFED33FD4007985006D5F0F222C398FDFB
:05087B000FD5F0EA2298
:100D6F00C2D5E830E70FB2D5E4C39BFBE49AFAE4AF
:100D7F0099F9E498F8EC30E717B2D5120DA51208DF
:100D8F00D0E4C39BFBE49AFAE499F9E498F8800362
:100D9F001208D030D50DE4C39FFFE49EFEE49DFD05
:040DAF00E49CFC22A2
:10088000E86010ECA2E713FCED13FDEE13FEEF138E
:04089000FFD8F0227B
:1008940075F008758200EF2FFFEE33FECD33CDCC1B
:1008A40033CCC58233C5829BED9AEC99E58298409E
:1008B4000CF582EE9BFEED9AFDEC99FC0FD5F0D67B
:1008C400E4CEFBE4CDFAE4CCF9A88222B800C1B9A5
:1008D4000059BA002DEC8BF084CFCECDFCE5F0CBE3
:1008E400F97818EF2FFFEE33FEED33FDEC33FCEB1C
:1008F40033FB10D703994004EB99FB0FD8E5E4F9D7
:10090400FA227818EF2FFFEE33FEED33FDEC33FCC3
:10091400C933C910D7059BE99A4007EC9BFCE99AB7
:10092400F90FD8E0E4C9FAE4CCFB2275F010EF2FFC
:10093400FFEE33FEED33FDCC33CCC833C810D707FC
:100944009BEC9AE899400AED9BFDEC9AFCE899F837
:0E0954000FD5F0DAE4CDFBE4CCFAE4C8F922CA
:00000001FF
